{
  "data": {
    "bytecode": {
      "linkReferences": {},
      "object": "6080604052348015600e575f5ffd5b50335f5f6101000a81548173ffffffffffffffffffffffffffffffffffffffff021916908373ffffffffffffffffffffffffffffffffffffffff160217905550610dc08061005b5f395ff3fe608060405234801561000f575f5ffd5b5060043610610034575f3560e01c8063ae55c88814610038578063bc12f6eb1461006c575b5f5ffd5b610052600480360381019061004d9190610672565b610088565b604051610063959493929190610731565b60405180910390f35b610086600480360381019061008191906107c1565b61030e565b005b60608060605f5f5f866040516020016100a191906108e2565b6040516020818303038152906040528051906020012090505f60015f8381526020019081526020015f206040518060a00160405290815f820180546100e590610925565b80601f016020809104026020016040519081016040528092919081815260200182805461011190610925565b801561015c5780601f106101335761010080835404028352916020019161015c565b820191905f5260205f20905b81548152906001019060200180831161013f57829003601f168201915b5050505050815260200160018201805461017590610925565b80601f01602080910402602001604051908101604052809291908181526020018280546101a190610925565b80156101ec5780601f106101c3576101008083540402835291602001916101ec565b820191905f5260205f20905b8154815290600101906020018083116101cf57829003601f168201915b5050505050815260200160028201805461020590610925565b80601f016020809104026020016040519081016040528092919081815260200182805461023190610925565b801561027c5780601f106102535761010080835404028352916020019161027c565b820191905f5260205f20905b81548152906001019060200180831161025f57829003601f168201915b505050505081526020016003820154815260200160048201548152505090505f8160600151036102e1576040517f08c379a00000000000000000000000000000000000000000000000000000000081526004016102d89061099f565b60405180910390fd5b805f0151816020015182604001518360600151846080015196509650965096509650505091939590929450565b5f5f9054906101000a900473ffffffffffffffffffffffffffffffffffffffff1673ffffffffffffffffffffffffffffffffffffffff163373ffffffffffffffffffffffffffffffffffffffff161461039c576040517f08c379a000000000000000000000000000000000000000000000000000000000815260040161039390610a2d565b60405180910390fd5b5f856040516020016103ae91906108e2565b6040516020818303038152906040528051906020012090505f60015f8381526020019081526020015f20600301541461041c576040517f08c379a000000000000000000000000000000000000000000000000000000000815260040161041390610a95565b60405180910390fd5b6107e7821015610461576040517f08c379a000000000000000000000000000000000000000000000000000000000815260040161045890610afd565b60405180910390fd5b6040518060a001604052808681526020018581526020018481526020018381526020014381525060015f8381526020019081526020015f205f820151815f0190816104ac9190610cbb565b5060208201518160010190816104c29190610cbb565b5060408201518160020190816104d89190610cbb565b506060820151816003015560808201518160040155905050807ff54e0f0055ffae318a21890316ed523f8a60aa59aaa279dfdcae7176155ec0db60405160405180910390a2505050505050565b5f604051905090565b5f5ffd5b5f5ffd5b5f5ffd5b5f5ffd5b5f601f19601f8301169050919050565b7f4e487b71000000000000000000000000000000000000000000000000000000005f52604160045260245ffd5b6105848261053e565b810181811067ffffffffffffffff821117156105a3576105a261054e565b5b80604052505050565b5f6105b5610525565b90506105c1828261057b565b919050565b5f67ffffffffffffffff8211156105e0576105df61054e565b5b6105e98261053e565b9050602081019050919050565b828183375f83830152505050565b5f610616610611846105c6565b6105ac565b9050828152602081018484840111156106325761063161053a565b5b61063d8482856105f6565b509392505050565b5f82601f83011261065957610658610536565b5b8135610669848260208601610604565b91505092915050565b5f602082840312156106875761068661052e565b5b5f82013567ffffffffffffffff8111156106a4576106a3610532565b5b6106b084828501610645565b91505092915050565b5f81519050919050565b5f82825260208201905092915050565b8281835e5f83830152505050565b5f6106eb826106b9565b6106f581856106c3565b93506107058185602086016106d3565b61070e8161053e565b840191505092915050565b5f819050919050565b61072b81610719565b82525050565b5f60a0820190508181035f83015261074981886106e1565b9050818103602083015261075d81876106e1565b9050818103604083015261077181866106e1565b90506107806060830185610722565b61078d6080830184610722565b9695505050505050565b6107a081610719565b81146107aa575f5ffd5b50565b5f813590506107bb81610797565b92915050565b5f5f5f5f5f60a086880312156107da576107d961052e565b5b5f86013567ffffffffffffffff8111156107f7576107f6610532565b5b61080388828901610645565b955050602086013567ffffffffffffffff81111561082457610823610532565b5b61083088828901610645565b945050604086013567ffffffffffffffff81111561085157610850610532565b5b61085d88828901610645565b935050606086013567ffffffffffffffff81111561087e5761087d610532565b5b61088a88828901610645565b925050608061089b888289016107ad565b9150509295509295909350565b5f81905092915050565b5f6108bc826106b9565b6108c681856108a8565b93506108d68185602086016106d3565b80840191505092915050565b5f6108ed82846108b2565b915081905092915050565b7f4e487b71000000000000000000000000000000000000000000000000000000005f52602260045260245ffd5b5f600282049050600182168061093c57607f821691505b60208210810361094f5761094e6108f8565b5b50919050565b7f4e6f2064617461206578697374730000000000000000000000000000000000005f82015250565b5f610989600e836106c3565b915061099482610955565b602082019050919050565b5f6020820190508181035f8301526109b68161097d565b9050919050565b7f4f6e6c79204973737565722063616e2063616c6c20746869732066756e6374695f8201527f6f6e2e0000000000000000000000000000000000000000000000000000000000602082015250565b5f610a176023836106c3565b9150610a22826109bd565b604082019050919050565b5f6020820190508181035f830152610a4481610a0b565b9050919050565b7f436572746966696361746520616c7265616479206578697374730000000000005f82015250565b5f610a7f601a836106c3565b9150610a8a82610a4b565b602082019050919050565b5f6020820190508181035f830152610aac81610a73565b9050919050565b7f42617463682079656172206d75737420626520323032332b00000000000000005f82015250565b5f610ae76018836106c3565b9150610af282610ab3565b602082019050919050565b5f6020820190508181035f830152610b1481610adb565b9050919050565b5f819050815f5260205f209050919050565b5f6020601f8301049050919050565b5f82821b905092915050565b5f60088302610b777fffffffffffffffffffffffffffffffffffffffffffffffffffffffffffffffff82610b3c565b610b818683610b3c565b95508019841693508086168417925050509392505050565b5f819050919050565b5f610bbc610bb7610bb284610719565b610b99565b610719565b9050919050565b5f819050919050565b610bd583610ba2565b610be9610be182610bc3565b848454610b48565b825550505050565b5f5f905090565b610c00610bf1565b610c0b818484610bcc565b505050565b5b81811015610c2e57610c235f82610bf8565b600181019050610c11565b5050565b601f821115610c7357610c4481610b1b565b610c4d84610b2d565b81016020851015610c5c578190505b610c70610c6885610b2d565b830182610c10565b50505b505050565b5f82821c905092915050565b5f610c935f1984600802610c78565b1980831691505092915050565b5f610cab8383610c84565b9150826002028217905092915050565b610cc4826106b9565b67ffffffffffffffff811115610cdd57610cdc61054e565b5b610ce78254610925565b610cf2828285610c32565b5f60209050601f831160018114610d23575f8415610d11578287015190505b610d1b8582610ca0565b865550610d82565b601f198416610d3186610b1b565b5f5b82811015610d5857848901518255600182019150602085019450602081019050610d33565b86831015610d755784890151610d71601f891682610c84565b8355505b6001600288020188555050505b50505050505056fea2646970667358221220c150b0e290ecb2cb0862cc6f2a54c798f4dc691b71e33409cc6161c99734d98d64736f6c634300081f0033",
      "opcodes": "PUSH1 0x80 PUSH1 0x40 MSTORE CALLVALUE DUP1 ISZERO PUSH1 0xE JUMPI PUSH0 PUSH0 REVERT JUMPDEST POP CALLER PUSH0 PUSH0 PUSH2 0x100 EXP DUP2 SLOAD DUP2 PUSH20 0xFFFFFFFFFFFFFFFFFFFFFFFFFFFFFFFFFFFFFFFF MUL NOT AND SWAP1 DUP4 PUSH20 0xFFFFFFFFFFFFFFFFFFFFFFFFFFFFFFFFFFFFFFFF AND MUL OR SWAP1 SSTORE POP PUSH2 0xDC0 DUP1 PUSH2 0x5B PUSH0 CODECOPY PUSH0 RETURN INVALID PUSH1 0x80 PUSH1 0x40 MSTORE CALLVALUE DUP1 ISZERO PUSH2 0xF JUMPI PUSH0 PUSH0 REVERT JUMPDEST POP PUSH1 0x4 CALLDATASIZE LT PUSH2 0x34 JUMPI PUSH0 CALLDATALOAD PUSH1 0xE0 SHR DUP1 PUSH4 0xAE55C888 EQ PUSH2 0x38 JUMPI DUP1 PUSH4 0xBC12F6EB EQ PUSH2 0x6C JUMPI JUMPDEST PUSH0 PUSH0 REVERT JUMPDEST PUSH2 0x52 PUSH1 0x4 DUP1 CALLDATASIZE SUB DUP2 ADD SWAP1 PUSH2 0x4D SWAP2 SWAP1 PUSH2 0x672 JUMP JUMPDEST PUSH2 0x88 JUMP JUMPDEST PUSH1 0x40 MLOAD PUSH2 0x63 SWAP6 SWAP5 SWAP4 SWAP3 SWAP2 SWAP1 PUSH2 0x731 JUMP JUMPDEST PUSH1 0x40 MLOAD DUP1 SWAP2 SUB SWAP1 RETURN JUMPDEST PUSH2 0x86 PUSH1 0x4 DUP1 CALLDATASIZE SUB DUP2 ADD SWAP1 PUSH2 0x81 SWAP2 SWAP1 PUSH2 0x7C1 JUMP JUMPDEST PUSH2 0x30E JUMP JUMPDEST STOP JUMPDEST PUSH1 0x60 DUP1 PUSH1 0x60 PUSH0 PUSH0 PUSH0 DUP7 PUSH1 0x40 MLOAD PUSH1 0x20 ADD PUSH2 0xA1 SWAP2 SWAP1 PUSH2 0x8E2 JUMP JUMPDEST PUSH1 0x40 MLOAD PUSH1 0x20 DUP2 DUP4 SUB SUB DUP2 MSTORE SWAP1 PUSH1 0x40 MSTORE DUP1 MLOAD SWAP1 PUSH1 0x20 ADD KECCAK256 SWAP1 POP PUSH0 PUSH1 0x1 PUSH0 DUP4 DUP2 MSTORE PUSH1 0x20 ADD SWAP1 DUP2 MSTORE PUSH1 0x20 ADD PUSH0 KECCAK256 PUSH1 0x40 MLOAD DUP1 PUSH1 0xA0 ADD PUSH1 0x40 MSTORE SWAP1 DUP2 PUSH0 DUP3 ADD DUP1 SLOAD PUSH2 0xE5 SWAP1 PUSH2 0x925 JUMP JUMPDEST DUP1 PUSH1 0x1F ADD PUSH1 0x20 DUP1 SWAP2 DIV MUL PUSH1 0x20 ADD PUSH1 0x40 MLOAD SWAP1 DUP2 ADD PUSH1 0x40 MSTORE DUP1 SWAP3 SWAP2 SWAP1 DUP2 DUP2 MSTORE PUSH1 0x20 ADD DUP3 DUP1 SLOAD PUSH2 0x111 SWAP1 PUSH2 0x925 JUMP JUMPDEST DUP1 ISZERO PUSH2 0x15C JUMPI DUP1 PUSH1 0x1F LT PUSH2 0x133 JUMPI PUSH2 0x100 DUP1 DUP4 SLOAD DIV MUL DUP4 MSTORE SWAP2 PUSH1 0x20 ADD SWAP2 PUSH2 0x15C JUMP JUMPDEST DUP3 ADD SWAP2 SWAP1 PUSH0 MSTORE PUSH1 0x20 PUSH0 KECCAK256 SWAP1 JUMPDEST DUP2 SLOAD DUP2 MSTORE SWAP1 PUSH1 0x1 ADD SWAP1 PUSH1 0x20 ADD DUP1 DUP4 GT PUSH2 0x13F JUMPI DUP3 SWAP1 SUB PUSH1 0x1F AND DUP3 ADD SWAP2 JUMPDEST POP POP POP POP POP DUP2 MSTORE PUSH1 0x20 ADD PUSH1 0x1 DUP3 ADD DUP1 SLOAD PUSH2 0x175 SWAP1 PUSH2 0x925 JUMP JUMPDEST DUP1 PUSH1 0x1F ADD PUSH1 0x20 DUP1 SWAP2 DIV MUL PUSH1 0x20 ADD PUSH1 0x40 MLOAD SWAP1 DUP2 ADD PUSH1 0x40 MSTORE DUP1 SWAP3 SWAP2 SWAP1 DUP2 DUP2 MSTORE PUSH1 0x20 ADD DUP3 DUP1 SLOAD PUSH2 0x1A1 SWAP1 PUSH2 0x925 JUMP JUMPDEST DUP1 ISZERO PUSH2 0x1EC JUMPI DUP1 PUSH1 0x1F LT PUSH2 0x1C3 JUMPI PUSH2 0x100 DUP1 DUP4 SLOAD DIV MUL DUP4 MSTORE SWAP2 PUSH1 0x20 ADD SWAP2 PUSH2 0x1EC JUMP JUMPDEST DUP3 ADD SWAP2 SWAP1 PUSH0 MSTORE PUSH1 0x20 PUSH0 KECCAK256 SWAP1 JUMPDEST DUP2 SLOAD DUP2 MSTORE SWAP1 PUSH1 0x1 ADD SWAP1 PUSH1 0x20 ADD DUP1 DUP4 GT PUSH2 0x1CF JUMPI DUP3 SWAP1 SUB PUSH1 0x1F AND DUP3 ADD SWAP2 JUMPDEST POP POP POP POP POP DUP2 MSTORE PUSH1 0x20 ADD PUSH1 0x2 DUP3 ADD DUP1 SLOAD PUSH2 0x205 SWAP1 PUSH2 0x925 JUMP JUMPDEST DUP1 PUSH1 0x1F ADD PUSH1 0x20 DUP1 SWAP2 DIV MUL PUSH1 0x20 ADD PUSH1 0x40 MLOAD SWAP1 DUP2 ADD PUSH1 0x40 MSTORE DUP1 SWAP3 SWAP2 SWAP1 DUP2 DUP2 MSTORE PUSH1 0x20 ADD DUP3 DUP1 SLOAD PUSH2 0x231 SWAP1 PUSH2 0x925 JUMP JUMPDEST DUP1 ISZERO PUSH2 0x27C JUMPI DUP1 PUSH1 0x1F LT PUSH2 0x253 JUMPI PUSH2 0x100 DUP1 DUP4 SLOAD DIV MUL DUP4 MSTORE SWAP2 PUSH1 0x20 ADD SWAP2 PUSH2 0x27C JUMP JUMPDEST DUP3 ADD SWAP2 SWAP1 PUSH0 MSTORE PUSH1 0x20 PUSH0 KECCAK256 SWAP1 JUMPDEST DUP2 SLOAD DUP2 MSTORE SWAP1 PUSH1 0x1 ADD SWAP1 PUSH1 0x20 ADD DUP1 DUP4 GT PUSH2 0x25F JUMPI DUP3 SWAP1 SUB PUSH1 0x1F AND DUP3 ADD SWAP2 JUMPDEST POP POP POP POP POP DUP2 MSTORE PUSH1 0x20 ADD PUSH1 0x3 DUP3 ADD SLOAD DUP2 MSTORE PUSH1 0x20 ADD PUSH1 0x4 DUP3 ADD SLOAD DUP2 MSTORE POP POP SWAP1 POP PUSH0 DUP2 PUSH1 0x60 ADD MLOAD SUB PUSH2 0x2E1 JUMPI PUSH1 0x40 MLOAD PUSH32 0x8C379A000000000000000000000000000000000000000000000000000000000 DUP2 MSTORE PUSH1 0x4 ADD PUSH2 0x2D8 SWAP1 PUSH2 0x99F JUMP JUMPDEST PUSH1 0x40 MLOAD DUP1 SWAP2 SUB SWAP1 REVERT JUMPDEST DUP1 PUSH0 ADD MLOAD DUP2 PUSH1 0x20 ADD MLOAD DUP3 PUSH1 0x40 ADD MLOAD DUP4 PUSH1 0x60 ADD MLOAD DUP5 PUSH1 0x80 ADD MLOAD SWAP7 POP SWAP7 POP SWAP7 POP SWAP7 POP SWAP7 POP POP POP SWAP2 SWAP4 SWAP6 SWAP1 SWAP3 SWAP5 POP JUMP JUMPDEST PUSH0 PUSH0 SWAP1 SLOAD SWAP1 PUSH2 0x100 EXP SWAP1 DIV PUSH20 0xFFFFFFFFFFFFFFFFFFFFFFFFFFFFFFFFFFFFFFFF AND PUSH20 0xFFFFFFFFFFFFFFFFFFFFFFFFFFFFFFFFFFFFFFFF AND CALLER PUSH20 0xFFFFFFFFFFFFFFFFFFFFFFFFFFFFFFFFFFFFFFFF AND EQ PUSH2 0x39C JUMPI PUSH1 0x40 MLOAD PUSH32 0x8C379A000000000000000000000000000000000000000000000000000000000 DUP2 MSTORE PUSH1 0x4 ADD PUSH2 0x393 SWAP1 PUSH2 0xA2D JUMP JUMPDEST PUSH1 0x40 MLOAD DUP1 SWAP2 SUB SWAP1 REVERT JUMPDEST PUSH0 DUP6 PUSH1 0x40 MLOAD PUSH1 0x20 ADD PUSH2 0x3AE SWAP2 SWAP1 PUSH2 0x8E2 JUMP JUMPDEST PUSH1 0x40 MLOAD PUSH1 0x20 DUP2 DUP4 SUB SUB DUP2 MSTORE SWAP1 PUSH1 0x40 MSTORE DUP1 MLOAD SWAP1 PUSH1 0x20 ADD KECCAK256 SWAP1 POP PUSH0 PUSH1 0x1 PUSH0 DUP4 DUP2 MSTORE PUSH1 0x20 ADD SWAP1 DUP2 MSTORE PUSH1 0x20 ADD PUSH0 KECCAK256 PUSH1 0x3 ADD SLOAD EQ PUSH2 0x41C JUMPI PUSH1 0x40 MLOAD PUSH32 0x8C379A000000000000000000000000000000000000000000000000000000000 DUP2 MSTORE PUSH1 0x4 ADD PUSH2 0x413 SWAP1 PUSH2 0xA95 JUMP JUMPDEST PUSH1 0x40 MLOAD DUP1 SWAP2 SUB SWAP1 REVERT JUMPDEST PUSH2 0x7E7 DUP3 LT ISZERO PUSH2 0x461 JUMPI PUSH1 0x40 MLOAD PUSH32 0x8C379A000000000000000000000000000000000000000000000000000000000 DUP2 MSTORE PUSH1 0x4 ADD PUSH2 0x458 SWAP1 PUSH2 0xAFD JUMP JUMPDEST PUSH1 0x40 MLOAD DUP1 SWAP2 SUB SWAP1 REVERT JUMPDEST PUSH1 0x40 MLOAD DUP1 PUSH1 0xA0 ADD PUSH1 0x40 MSTORE DUP1 DUP7 DUP2 MSTORE PUSH1 0x20 ADD DUP6 DUP2 MSTORE PUSH1 0x20 ADD DUP5 DUP2 MSTORE PUSH1 0x20 ADD DUP4 DUP2 MSTORE PUSH1 0x20 ADD NUMBER DUP2 MSTORE POP PUSH1 0x1 PUSH0 DUP4 DUP2 MSTORE PUSH1 0x20 ADD SWAP1 DUP2 MSTORE PUSH1 0x20 ADD PUSH0 KECCAK256 PUSH0 DUP3 ADD MLOAD DUP2 PUSH0 ADD SWAP1 DUP2 PUSH2 0x4AC SWAP2 SWAP1 PUSH2 0xCBB JUMP JUMPDEST POP PUSH1 0x20 DUP3 ADD MLOAD DUP2 PUSH1 0x1 ADD SWAP1 DUP2 PUSH2 0x4C2 SWAP2 SWAP1 PUSH2 0xCBB JUMP JUMPDEST POP PUSH1 0x40 DUP3 ADD MLOAD DUP2 PUSH1 0x2 ADD SWAP1 DUP2 PUSH2 0x4D8 SWAP2 SWAP1 PUSH2 0xCBB JUMP JUMPDEST POP PUSH1 0x60 DUP3 ADD MLOAD DUP2 PUSH1 0x3 ADD SSTORE PUSH1 0x80 DUP3 ADD MLOAD DUP2 PUSH1 0x4 ADD SSTORE SWAP1 POP POP DUP1 PUSH32 0xF54E0F0055FFAE318A21890316ED523F8A60AA59AAA279DFDCAE7176155EC0DB PUSH1 0x40 MLOAD PUSH1 0x40 MLOAD DUP1 SWAP2 SUB SWAP1 LOG2 POP POP POP POP POP POP JUMP JUMPDEST PUSH0 PUSH1 0x40 MLOAD SWAP1 POP SWAP1 JUMP JUMPDEST PUSH0 PUSH0 REVERT JUMPDEST PUSH0 PUSH0 REVERT JUMPDEST PUSH0 PUSH0 REVERT JUMPDEST PUSH0 PUSH0 REVERT JUMPDEST PUSH0 PUSH1 0x1F NOT PUSH1 0x1F DUP4 ADD AND SWAP1 POP SWAP2 SWAP1 POP JUMP JUMPDEST PUSH32 0x4E487B7100000000000000000000000000000000000000000000000000000000 PUSH0 MSTORE PUSH1 0x41 PUSH1 0x4 MSTORE PUSH1 0x24 PUSH0 REVERT JUMPDEST PUSH2 0x584 DUP3 PUSH2 0x53E JUMP JUMPDEST DUP2 ADD DUP2 DUP2 LT PUSH8 0xFFFFFFFFFFFFFFFF DUP3 GT OR ISZERO PUSH2 0x5A3 JUMPI PUSH2 0x5A2 PUSH2 0x54E JUMP JUMPDEST JUMPDEST DUP1 PUSH1 0x40 MSTORE POP POP POP JUMP JUMPDEST PUSH0 PUSH2 0x5B5 PUSH2 0x525 JUMP JUMPDEST SWAP1 POP PUSH2 0x5C1 DUP3 DUP3 PUSH2 0x57B JUMP JUMPDEST SWAP2 SWAP1 POP JUMP JUMPDEST PUSH0 PUSH8 0xFFFFFFFFFFFFFFFF DUP3 GT ISZERO PUSH2 0x5E0 JUMPI PUSH2 0x5DF PUSH2 0x54E JUMP JUMPDEST JUMPDEST PUSH2 0x5E9 DUP3 PUSH2 0x53E JUMP JUMPDEST SWAP1 POP PUSH1 0x20 DUP2 ADD SWAP1 POP SWAP2 SWAP1 POP JUMP JUMPDEST DUP3 DUP2 DUP4 CALLDATACOPY PUSH0 DUP4 DUP4 ADD MSTORE POP POP POP JUMP JUMPDEST PUSH0 PUSH2 0x616 PUSH2 0x611 DUP5 PUSH2 0x5C6 JUMP JUMPDEST PUSH2 0x5AC JUMP JUMPDEST SWAP1 POP DUP3 DUP2 MSTORE PUSH1 0x20 DUP2 ADD DUP5 DUP5 DUP5 ADD GT ISZERO PUSH2 0x632 JUMPI PUSH2 0x631 PUSH2 0x53A JUMP JUMPDEST JUMPDEST PUSH2 0x63D DUP5 DUP3 DUP6 PUSH2 0x5F6 JUMP JUMPDEST POP SWAP4 SWAP3 POP POP POP JUMP JUMPDEST PUSH0 DUP3 PUSH1 0x1F DUP4 ADD SLT PUSH2 0x659 JUMPI PUSH2 0x658 PUSH2 0x536 JUMP JUMPDEST JUMPDEST DUP2 CALLDATALOAD PUSH2 0x669 DUP5 DUP3 PUSH1 0x20 DUP7 ADD PUSH2 0x604 JUMP JUMPDEST SWAP2 POP POP SWAP3 SWAP2 POP POP JUMP JUMPDEST PUSH0 PUSH1 0x20 DUP3 DUP5 SUB SLT ISZERO PUSH2 0x687 JUMPI PUSH2 0x686 PUSH2 0x52E JUMP JUMPDEST JUMPDEST PUSH0 DUP3 ADD CALLDATALOAD PUSH8 0xFFFFFFFFFFFFFFFF DUP2 GT ISZERO PUSH2 0x6A4 JUMPI PUSH2 0x6A3 PUSH2 0x532 JUMP JUMPDEST JUMPDEST PUSH2 0x6B0 DUP5 DUP3 DUP6 ADD PUSH2 0x645 JUMP JUMPDEST SWAP2 POP POP SWAP3 SWAP2 POP POP JUMP JUMPDEST PUSH0 DUP2 MLOAD SWAP1 POP SWAP2 SWAP1 POP JUMP JUMPDEST PUSH0 DUP3 DUP3 MSTORE PUSH1 0x20 DUP3 ADD SWAP1 POP SWAP3 SWAP2 POP POP JUMP JUMPDEST DUP3 DUP2 DUP4 MCOPY PUSH0 DUP4 DUP4 ADD MSTORE POP POP POP JUMP JUMPDEST PUSH0 PUSH2 0x6EB DUP3 PUSH2 0x6B9 JUMP JUMPDEST PUSH2 0x6F5 DUP2 DUP6 PUSH2 0x6C3 JUMP JUMPDEST SWAP4 POP PUSH2 0x705 DUP2 DUP6 PUSH1 0x20 DUP7 ADD PUSH2 0x6D3 JUMP JUMPDEST PUSH2 0x70E DUP2 PUSH2 0x53E JUMP JUMPDEST DUP5 ADD SWAP2 POP POP SWAP3 SWAP2 POP POP JUMP JUMPDEST PUSH0 DUP2 SWAP1 POP SWAP2 SWAP1 POP JUMP JUMPDEST PUSH2 0x72B DUP2 PUSH2 0x719 JUMP JUMPDEST DUP3 MSTORE POP POP JUMP JUMPDEST PUSH0 PUSH1 0xA0 DUP3 ADD SWAP1 POP DUP2 DUP2 SUB PUSH0 DUP4 ADD MSTORE PUSH2 0x749 DUP2 DUP9 PUSH2 0x6E1 JUMP JUMPDEST SWAP1 POP DUP2 DUP2 SUB PUSH1 0x20 DUP4 ADD MSTORE PUSH2 0x75D DUP2 DUP8 PUSH2 0x6E1 JUMP JUMPDEST SWAP1 POP DUP2 DUP2 SUB PUSH1 0x40 DUP4 ADD MSTORE PUSH2 0x771 DUP2 DUP7 PUSH2 0x6E1 JUMP JUMPDEST SWAP1 POP PUSH2 0x780 PUSH1 0x60 DUP4 ADD DUP6 PUSH2 0x722 JUMP JUMPDEST PUSH2 0x78D PUSH1 0x80 DUP4 ADD DUP5 PUSH2 0x722 JUMP JUMPDEST SWAP7 SWAP6 POP POP POP POP POP POP JUMP JUMPDEST PUSH2 0x7A0 DUP2 PUSH2 0x719 JUMP JUMPDEST DUP2 EQ PUSH2 0x7AA JUMPI PUSH0 PUSH0 REVERT JUMPDEST POP JUMP JUMPDEST PUSH0 DUP2 CALLDATALOAD SWAP1 POP PUSH2 0x7BB DUP2 PUSH2 0x797 JUMP JUMPDEST SWAP3 SWAP2 POP POP JUMP JUMPDEST PUSH0 PUSH0 PUSH0 PUSH0 PUSH0 PUSH1 0xA0 DUP7 DUP9 SUB SLT ISZERO PUSH2 0x7DA JUMPI PUSH2 0x7D9 PUSH2 0x52E JUMP JUMPDEST JUMPDEST PUSH0 DUP7 ADD CALLDATALOAD PUSH8 0xFFFFFFFFFFFFFFFF DUP2 GT ISZERO PUSH2 0x7F7 JUMPI PUSH2 0x7F6 PUSH2 0x532 JUMP JUMPDEST JUMPDEST PUSH2 0x803 DUP9 DUP3 DUP10 ADD PUSH2 0x645 JUMP JUMPDEST SWAP6 POP POP PUSH1 0x20 DUP7 ADD CALLDATALOAD PUSH8 0xFFFFFFFFFFFFFFFF DUP2 GT ISZERO PUSH2 0x824 JUMPI PUSH2 0x823 PUSH2 0x532 JUMP JUMPDEST JUMPDEST PUSH2 0x830 DUP9 DUP3 DUP10 ADD PUSH2 0x645 JUMP JUMPDEST SWAP5 POP POP PUSH1 0x40 DUP7 ADD CALLDATALOAD PUSH8 0xFFFFFFFFFFFFFFFF DUP2 GT ISZERO PUSH2 0x851 JUMPI PUSH2 0x850 PUSH2 0x532 JUMP JUMPDEST JUMPDEST PUSH2 0x85D DUP9 DUP3 DUP10 ADD PUSH2 0x645 JUMP JUMPDEST SWAP4 POP POP PUSH1 0x60 DUP7 ADD CALLDATALOAD PUSH8 0xFFFFFFFFFFFFFFFF DUP2 GT ISZERO PUSH2 0x87E JUMPI PUSH2 0x87D PUSH2 0x532 JUMP JUMPDEST JUMPDEST PUSH2 0x88A DUP9 DUP3 DUP10 ADD PUSH2 0x645 JUMP JUMPDEST SWAP3 POP POP PUSH1 0x80 PUSH2 0x89B DUP9 DUP3 DUP10 ADD PUSH2 0x7AD JUMP JUMPDEST SWAP2 POP POP SWAP3 SWAP6 POP SWAP3 SWAP6 SWAP1 SWAP4 POP JUMP JUMPDEST PUSH0 DUP2 SWAP1 POP SWAP3 SWAP2 POP POP JUMP JUMPDEST PUSH0 PUSH2 0x8BC DUP3 PUSH2 0x6B9 JUMP JUMPDEST PUSH2 0x8C6 DUP2 DUP6 PUSH2 0x8A8 JUMP JUMPDEST SWAP4 POP PUSH2 0x8D6 DUP2 DUP6 PUSH1 0x20 DUP7 ADD PUSH2 0x6D3 JUMP JUMPDEST DUP1 DUP5 ADD SWAP2 POP POP SWAP3 SWAP2 POP POP JUMP JUMPDEST PUSH0 PUSH2 0x8ED DUP3 DUP5 PUSH2 0x8B2 JUMP JUMPDEST SWAP2 POP DUP2 SWAP1 POP SWAP3 SWAP2 POP POP JUMP JUMPDEST PUSH32 0x4E487B7100000000000000000000000000000000000000000000000000000000 PUSH0 MSTORE PUSH1 0x22 PUSH1 0x4 MSTORE PUSH1 0x24 PUSH0 REVERT JUMPDEST PUSH0 PUSH1 0x2 DUP3 DIV SWAP1 POP PUSH1 0x1 DUP3 AND DUP1 PUSH2 0x93C JUMPI PUSH1 0x7F DUP3 AND SWAP2 POP JUMPDEST PUSH1 0x20 DUP3 LT DUP2 SUB PUSH2 0x94F JUMPI PUSH2 0x94E PUSH2 0x8F8 JUMP JUMPDEST JUMPDEST POP SWAP2 SWAP1 POP JUMP JUMPDEST PUSH32 0x4E6F206461746120657869737473000000000000000000000000000000000000 PUSH0 DUP3 ADD MSTORE POP JUMP JUMPDEST PUSH0 PUSH2 0x989 PUSH1 0xE DUP4 PUSH2 0x6C3 JUMP JUMPDEST SWAP2 POP PUSH2 0x994 DUP3 PUSH2 0x955 JUMP JUMPDEST PUSH1 0x20 DUP3 ADD SWAP1 POP SWAP2 SWAP1 POP JUMP JUMPDEST PUSH0 PUSH1 0x20 DUP3 ADD SWAP1 POP DUP2 DUP2 SUB PUSH0 DUP4 ADD MSTORE PUSH2 0x9B6 DUP2 PUSH2 0x97D JUMP JUMPDEST SWAP1 POP SWAP2 SWAP1 POP JUMP JUMPDEST PUSH32 0x4F6E6C79204973737565722063616E2063616C6C20746869732066756E637469 PUSH0 DUP3 ADD MSTORE PUSH32 0x6F6E2E0000000000000000000000000000000000000000000000000000000000 PUSH1 0x20 DUP3 ADD MSTORE POP JUMP JUMPDEST PUSH0 PUSH2 0xA17 PUSH1 0x23 DUP4 PUSH2 0x6C3 JUMP JUMPDEST SWAP2 POP PUSH2 0xA22 DUP3 PUSH2 0x9BD JUMP JUMPDEST PUSH1 0x40 DUP3 ADD SWAP1 POP SWAP2 SWAP1 POP JUMP JUMPDEST PUSH0 PUSH1 0x20 DUP3 ADD SWAP1 POP DUP2 DUP2 SUB PUSH0 DUP4 ADD MSTORE PUSH2 0xA44 DUP2 PUSH2 0xA0B JUMP JUMPDEST SWAP1 POP SWAP2 SWAP1 POP JUMP JUMPDEST PUSH32 0x436572746966696361746520616C726561647920657869737473000000000000 PUSH0 DUP3 ADD MSTORE POP JUMP JUMPDEST PUSH0 PUSH2 0xA7F PUSH1 0x1A DUP4 PUSH2 0x6C3 JUMP JUMPDEST SWAP2 POP PUSH2 0xA8A DUP3 PUSH2 0xA4B JUMP JUMPDEST PUSH1 0x20 DUP3 ADD SWAP1 POP SWAP2 SWAP1 POP JUMP JUMPDEST PUSH0 PUSH1 0x20 DUP3 ADD SWAP1 POP DUP2 DUP2 SUB PUSH0 DUP4 ADD MSTORE PUSH2 0xAAC DUP2 PUSH2 0xA73 JUMP JUMPDEST SWAP1 POP SWAP2 SWAP1 POP JUMP JUMPDEST PUSH32 0x42617463682079656172206D75737420626520323032332B0000000000000000 PUSH0 DUP3 ADD MSTORE POP JUMP JUMPDEST PUSH0 PUSH2 0xAE7 PUSH1 0x18 DUP4 PUSH2 0x6C3 JUMP JUMPDEST SWAP2 POP PUSH2 0xAF2 DUP3 PUSH2 0xAB3 JUMP JUMPDEST PUSH1 0x20 DUP3 ADD SWAP1 POP SWAP2 SWAP1 POP JUMP JUMPDEST PUSH0 PUSH1 0x20 DUP3 ADD SWAP1 POP DUP2 DUP2 SUB PUSH0 DUP4 ADD MSTORE PUSH2 0xB14 DUP2 PUSH2 0xADB JUMP JUMPDEST SWAP1 POP SWAP2 SWAP1 POP JUMP JUMPDEST PUSH0 DUP2 SWAP1 POP DUP2 PUSH0 MSTORE PUSH1 0x20 PUSH0 KECCAK256 SWAP1 POP SWAP2 SWAP1 POP JUMP JUMPDEST PUSH0 PUSH1 0x20 PUSH1 0x1F DUP4 ADD DIV SWAP1 POP SWAP2 SWAP1 POP JUMP JUMPDEST PUSH0 DUP3 DUP3 SHL SWAP1 POP SWAP3 SWAP2 POP POP JUMP JUMPDEST PUSH0 PUSH1 0x8 DUP4 MUL PUSH2 0xB77 PUSH32 0xFFFFFFFFFFFFFFFFFFFFFFFFFFFFFFFFFFFFFFFFFFFFFFFFFFFFFFFFFFFFFFFF DUP3 PUSH2 0xB3C JUMP JUMPDEST PUSH2 0xB81 DUP7 DUP4 PUSH2 0xB3C JUMP JUMPDEST SWAP6 POP DUP1 NOT DUP5 AND SWAP4 POP DUP1 DUP7 AND DUP5 OR SWAP3 POP POP POP SWAP4 SWAP3 POP POP POP JUMP JUMPDEST PUSH0 DUP2 SWAP1 POP SWAP2 SWAP1 POP JUMP JUMPDEST PUSH0 PUSH2 0xBBC PUSH2 0xBB7 PUSH2 0xBB2 DUP5 PUSH2 0x719 JUMP JUMPDEST PUSH2 0xB99 JUMP JUMPDEST PUSH2 0x719 JUMP JUMPDEST SWAP1 POP SWAP2 SWAP1 POP JUMP JUMPDEST PUSH0 DUP2 SWAP1 POP SWAP2 SWAP1 POP JUMP JUMPDEST PUSH2 0xBD5 DUP4 PUSH2 0xBA2 JUMP JUMPDEST PUSH2 0xBE9 PUSH2 0xBE1 DUP3 PUSH2 0xBC3 JUMP JUMPDEST DUP5 DUP5 SLOAD PUSH2 0xB48 JUMP JUMPDEST DUP3 SSTORE POP POP POP POP JUMP JUMPDEST PUSH0 PUSH0 SWAP1 POP SWAP1 JUMP JUMPDEST PUSH2 0xC00 PUSH2 0xBF1 JUMP JUMPDEST PUSH2 0xC0B DUP2 DUP5 DUP5 PUSH2 0xBCC JUMP JUMPDEST POP POP POP JUMP JUMPDEST JUMPDEST DUP2 DUP2 LT ISZERO PUSH2 0xC2E JUMPI PUSH2 0xC23 PUSH0 DUP3 PUSH2 0xBF8 JUMP JUMPDEST PUSH1 0x1 DUP2 ADD SWAP1 POP PUSH2 0xC11 JUMP JUMPDEST POP POP JUMP JUMPDEST PUSH1 0x1F DUP3 GT ISZERO PUSH2 0xC73 JUMPI PUSH2 0xC44 DUP2 PUSH2 0xB1B JUMP JUMPDEST PUSH2 0xC4D DUP5 PUSH2 0xB2D JUMP JUMPDEST DUP2 ADD PUSH1 0x20 DUP6 LT ISZERO PUSH2 0xC5C JUMPI DUP2 SWAP1 POP JUMPDEST PUSH2 0xC70 PUSH2 0xC68 DUP6 PUSH2 0xB2D JUMP JUMPDEST DUP4 ADD DUP3 PUSH2 0xC10 JUMP JUMPDEST POP POP JUMPDEST POP POP POP JUMP JUMPDEST PUSH0 DUP3 DUP3 SHR SWAP1 POP SWAP3 SWAP2 POP POP JUMP JUMPDEST PUSH0 PUSH2 0xC93 PUSH0 NOT DUP5 PUSH1 0x8 MUL PUSH2 0xC78 JUMP JUMPDEST NOT DUP1 DUP4 AND SWAP2 POP POP SWAP3 SWAP2 POP POP JUMP JUMPDEST PUSH0 PUSH2 0xCAB DUP4 DUP4 PUSH2 0xC84 JUMP JUMPDEST SWAP2 POP DUP3 PUSH1 0x2 MUL DUP3 OR SWAP1 POP SWAP3 SWAP2 POP POP JUMP JUMPDEST PUSH2 0xCC4 DUP3 PUSH2 0x6B9 JUMP JUMPDEST PUSH8 0xFFFFFFFFFFFFFFFF DUP2 GT ISZERO PUSH2 0xCDD JUMPI PUSH2 0xCDC PUSH2 0x54E JUMP JUMPDEST JUMPDEST PUSH2 0xCE7 DUP3 SLOAD PUSH2 0x925 JUMP JUMPDEST PUSH2 0xCF2 DUP3 DUP3 DUP6 PUSH2 0xC32 JUMP JUMPDEST PUSH0 PUSH1 0x20 SWAP1 POP PUSH1 0x1F DUP4 GT PUSH1 0x1 DUP2 EQ PUSH2 0xD23 JUMPI PUSH0 DUP5 ISZERO PUSH2 0xD11 JUMPI DUP3 DUP8 ADD MLOAD SWAP1 POP JUMPDEST PUSH2 0xD1B DUP6 DUP3 PUSH2 0xCA0 JUMP JUMPDEST DUP7 SSTORE POP PUSH2 0xD82 JUMP JUMPDEST PUSH1 0x1F NOT DUP5 AND PUSH2 0xD31 DUP7 PUSH2 0xB1B JUMP JUMPDEST PUSH0 JUMPDEST DUP3 DUP2 LT ISZERO PUSH2 0xD58 JUMPI DUP5 DUP10 ADD MLOAD DUP3 SSTORE PUSH1 0x1 DUP3 ADD SWAP2 POP PUSH1 0x20 DUP6 ADD SWAP5 POP PUSH1 0x20 DUP2 ADD SWAP1 POP PUSH2 0xD33 JUMP JUMPDEST DUP7 DUP4 LT ISZERO PUSH2 0xD75 JUMPI DUP5 DUP10 ADD MLOAD PUSH2 0xD71 PUSH1 0x1F DUP10 AND DUP3 PUSH2 0xC84 JUMP JUMPDEST DUP4 SSTORE POP JUMPDEST PUSH1 0x1 PUSH1 0x2 DUP9 MUL ADD DUP9 SSTORE POP POP POP JUMPDEST POP POP POP POP POP POP JUMP INVALID LOG2 PUSH5 0x6970667358 0x22 SLT KECCAK256 0xC1 POP 0xB0 0xE2 SWAP1 EOFCREATE 0xB2 0xCB ADDMOD PUSH3 0xCC6F2A SLOAD 0xC7 SWAP9 DELEGATECALL 0xDC PUSH10 0x1B71E33409CC6161C997 CALLVALUE 0xD9 DUP14 PUSH5 0x736F6C6343 STOP ADDMOD 0x1F STOP CALLER "
    },
    "gasEstimates": {
      "creation": {
        "codeDepositCost": "704000",
        "executionCost": "24996",
        "totalCost": "728996"
      },
      "external": {
        "generateCertificate(string,string,string,string,uint256)": "infinite",
        "getData(string)": "infinite"
      }
    },
    "methodIdentifiers": {
      "generateCertificate(string,string,string,string,uint256)": "bc12f6eb",
      "getData(string)": "ae55c888"
    }
  },
  "abi": [
    {
      "inputs": [],
      "stateMutability": "nonpayable",
      "type": "constructor"
    },
    {
      "anonymous": false,
      "inputs": [
        {
          "indexed": true,
          "internalType": "bytes32",
          "name": "_certificateId",
          "type": "bytes32"
        }
      ],
      "name": "certificateGenerated",
      "type": "event"
    },
    {
      "inputs": [
        {
          "internalType": "string",
          "name": "_id",
          "type": "string"
        },
        {
          "internalType": "string",
          "name": "_candidate_name",
          "type": "string"
        },
        {
          "internalType": "string",
          "name": "_org_name",
          "type": "string"
        },
        {
          "internalType": "string",
          "name": "_course_name",
          "type": "string"
        },
        {
          "internalType": "uint256",
          "name": "_batch_year",
          "type": "uint256"
        }
      ],
      "name": "generateCertificate",
      "outputs": [],
      "stateMutability": "nonpayable",
      "type": "function"
    },
    {
      "inputs": [
        {
          "internalType": "string",
          "name": "_id",
          "type": "string"
        }
      ],
      "name": "getData",
      "outputs": [
        {
          "internalType": "string",
          "name": "",
          "type": "string"
        },
        {
          "internalType": "string",
          "name": "",
          "type": "string"
        },
        {
          "internalType": "string",
          "name": "",
          "type": "string"
        },
        {
          "internalType": "uint256",
          "name": "",
          "type": "uint256"
        },
        {
          "internalType": "uint256",
          "name": "",
          "type": "uint256"
        }
      ],
      "stateMutability": "view",
      "type": "function"
    }
  ]
}